:100000000C942A000C9434000C9434000C943400AA
:100010000C9434000C9434000C9434000C94340090
:100020000C9434000C9434000C9434000C94340080
:100030000C9434000C9434000C9434000C94340070
:100040000C9434000C9434000C9434000C94340060
:100050000C94340011241FBECFE5D8E0DEBFCDBF25
:100060000E9436000C94F6010C940000CF93DF93AD
:1000700080E060E00E94F201C9E1D0E080E060E051
:1000800041E00E94E80180E593ECFE013197F1F731
:100090000197D9F780E060E040E00E94E80180E548
:1000A00093ECFE013197F1F70197D9F7E7CF813053
:1000B00031F1813038F0823009F43EC0833009F0EC
:1000C00072C056C0442321F0413009F06CC00CC00E
:1000D0002AB381E090E002C0880F991F6A95E2F789
:1000E000809582238ABB08952AB381E090E002C004
:1000F000880F991F6A95E2F7282B2ABB089544239D
:1001000021F0413009F04FC00CC027B381E090E0EE
:1001100002C0880F991F6A95E2F78095822387BBFA
:10012000089527B381E090E002C0880F991F6A9577
:10013000E2F7282B27BB0895442319F0413099F5A5
:100140000CC024B381E090E002C0880F991F6A952B
:10015000E2F78095822384BB089524B381E090E088
:1001600002C0880F991F6A95E2F7282B24BB0895D7
:10017000442319F04130B9F40CC021B381E090E080
:1001800002C0880F991F6A95E2F78095822381BB90
:10019000089521B381E090E002C0880F991F6A950D
:1001A000E2F7282B21BB0895813031F1813038F0FE
:1001B000823009F43EC0833009F072C056C0442337
:1001C00021F0413009F06CC00CC02BB381E090E00D
:1001D00002C0880F991F6A95E2F7809582238BBB36
:1001E00008952BB381E090E002C0880F991F6A95B3
:1001F000E2F7282B2BBB0895442321F0413009F06E
:100200004FC00CC028B381E090E002C0880F991F56
:100210006A95E2F78095822388BB089528B381E030
:1002200090E002C0880F991F6A95E2F7282B28BB3F
:100230000895442319F0413099F50CC025B381E0AD
:1002400090E002C0880F991F6A95E2F7809582239B
:1002500085BB089525B381E090E002C0880F991F07
:100260006A95E2F7282B25BB0895442319F0413005
:10027000B9F40CC022B381E090E002C0880F991F4E
:100280006A95E2F78095822382BB089522B381E0CC
:1002900090E002C0880F991F6A95E2F7282B22BBD5
:1002A0000895813049F0813028F0823039F0833070
:1002B000B1F40DC089B303C086B301C083B390E02D
:1002C00002C0959587956A95E2F78170089580B38D
:1002D00090E002C0959587956A95E2F78170089540
:1002E000813049F0813028F0823039F0833041F498
:1002F00006C06ABB089567BB089564BB089561BBDF
:100300000895813051F0813028F0823041F08330FF
:1003100049F407C06BBB6BBB089568BB089565BB10
:10032000089562BB0895813049F0813028F0823011
:1003300039F0833041F406C089B3089586B3089537
:1003400083B3089580B30895813091F0813028F00F
:100350008230C9F0833061F521C02BB381E090E099
:1003600002C0880F991F6A95E2F7282B2BBB0895CE
:1003700028B381E090E002C0880F991F6A95E2F7E8
:10038000282B28BB089525B381E090E002C0880F98
:10039000991F6A95E2F7282B25BB089522B381E0C7
:1003A00090E002C0880F991F6A95E2F7282B22BBC4
:1003B00008950F931F93182F062F0E94510141E0BB
:1003C0004827812F602F0E94D4001F910F9108951C
:1003D0000E94D40008950E94810108956FEF0E9449
:1003E0007001089541E00E9457000895F894FFCFEE
:00000001FF
